{
  "contractName": "Fessstable",
  "abi": [
    {
      "inputs": [
        {
          "internalType": "address",
          "name": "_owner",
          "type": "address"
        },
        {
          "internalType": "address payable",
          "name": "_feesWallet",
          "type": "address"
        },
        {
          "internalType": "string",
          "name": "_name",
          "type": "string"
        },
        {
          "internalType": "string",
          "name": "_symbol",
          "type": "string"
        },
        {
          "internalType": "contract fesschain",
          "name": "_fesschainAddress",
          "type": "address"
        }
      ],
      "payable": false,
      "stateMutability": "nonpayable",
      "type": "constructor"
    },
    {
      "anonymous": false,
      "inputs": [
        {
          "indexed": true,
          "internalType": "address",
          "name": "owner",
          "type": "address"
        },
        {
          "indexed": true,
          "internalType": "address",
          "name": "spender",
          "type": "address"
        },
        {
          "indexed": false,
          "internalType": "uint256",
          "name": "value",
          "type": "uint256"
        }
      ],
      "name": "Approval",
      "type": "event"
    },
    {
      "anonymous": false,
      "inputs": [
        {
          "indexed": true,
          "internalType": "address",
          "name": "from",
          "type": "address"
        },
        {
          "indexed": true,
          "internalType": "address",
          "name": "_to",
          "type": "address"
        }
      ],
      "name": "OwnershipTransferred",
      "type": "event"
    },
    {
      "anonymous": false,
      "inputs": [],
      "name": "Pause",
      "type": "event"
    },
    {
      "anonymous": false,
      "inputs": [
        {
          "indexed": true,
          "internalType": "address",
          "name": "from",
          "type": "address"
        },
        {
          "indexed": true,
          "internalType": "address",
          "name": "to",
          "type": "address"
        },
        {
          "indexed": false,
          "internalType": "uint256",
          "name": "value",
          "type": "uint256"
        }
      ],
      "name": "Transfer",
      "type": "event"
    },
    {
      "anonymous": false,
      "inputs": [],
      "name": "Unpause",
      "type": "event"
    },
    {
      "payable": true,
      "stateMutability": "payable",
      "type": "fallback"
    },
    {
      "constant": false,
      "inputs": [],
      "name": "acceptOwnership",
      "outputs": [],
      "payable": false,
      "stateMutability": "nonpayable",
      "type": "function"
    },
    {
      "constant": true,
      "inputs": [
        {
          "internalType": "address",
          "name": "owner",
          "type": "address"
        },
        {
          "internalType": "address",
          "name": "spender",
          "type": "address"
        }
      ],
      "name": "allowance",
      "outputs": [
        {
          "internalType": "uint256",
          "name": "",
          "type": "uint256"
        }
      ],
      "payable": false,
      "stateMutability": "view",
      "type": "function"
    },
    {
      "constant": false,
      "inputs": [
        {
          "internalType": "address",
          "name": "spender",
          "type": "address"
        },
        {
          "internalType": "uint256",
          "name": "value",
          "type": "uint256"
        }
      ],
      "name": "approve",
      "outputs": [
        {
          "internalType": "bool",
          "name": "",
          "type": "bool"
        }
      ],
      "payable": false,
      "stateMutability": "nonpayable",
      "type": "function"
    },
    {
      "constant": true,
      "inputs": [
        {
          "internalType": "address",
          "name": "account",
          "type": "address"
        }
      ],
      "name": "balanceOf",
      "outputs": [
        {
          "internalType": "uint256",
          "name": "",
          "type": "uint256"
        }
      ],
      "payable": false,
      "stateMutability": "view",
      "type": "function"
    },
    {
      "constant": true,
      "inputs": [],
      "name": "decimals",
      "outputs": [
        {
          "internalType": "uint8",
          "name": "",
          "type": "uint8"
        }
      ],
      "payable": false,
      "stateMutability": "view",
      "type": "function"
    },
    {
      "constant": false,
      "inputs": [
        {
          "internalType": "address",
          "name": "spender",
          "type": "address"
        },
        {
          "internalType": "uint256",
          "name": "subtractedValue",
          "type": "uint256"
        }
      ],
      "name": "decreaseAllowance",
      "outputs": [
        {
          "internalType": "bool",
          "name": "",
          "type": "bool"
        }
      ],
      "payable": false,
      "stateMutability": "nonpayable",
      "type": "function"
    },
    {
      "constant": true,
      "inputs": [],
      "name": "feesAmount",
      "outputs": [
        {
          "internalType": "uint256",
          "name": "",
          "type": "uint256"
        }
      ],
      "payable": false,
      "stateMutability": "view",
      "type": "function"
    },
    {
      "constant": true,
      "inputs": [],
      "name": "feesWallet",
      "outputs": [
        {
          "internalType": "address payable",
          "name": "",
          "type": "address"
        }
      ],
      "payable": false,
      "stateMutability": "view",
      "type": "function"
    },
    {
      "constant": true,
      "inputs": [],
      "name": "fesschainAddress",
      "outputs": [
        {
          "internalType": "address",
          "name": "",
          "type": "address"
        }
      ],
      "payable": false,
      "stateMutability": "view",
      "type": "function"
    },
    {
      "constant": false,
      "inputs": [
        {
          "internalType": "address",
          "name": "spender",
          "type": "address"
        },
        {
          "internalType": "uint256",
          "name": "addedValue",
          "type": "uint256"
        }
      ],
      "name": "increaseAllowance",
      "outputs": [
        {
          "internalType": "bool",
          "name": "",
          "type": "bool"
        }
      ],
      "payable": false,
      "stateMutability": "nonpayable",
      "type": "function"
    },
    {
      "constant": true,
      "inputs": [],
      "name": "name",
      "outputs": [
        {
          "internalType": "string",
          "name": "",
          "type": "string"
        }
      ],
      "payable": false,
      "stateMutability": "view",
      "type": "function"
    },
    {
      "constant": true,
      "inputs": [],
      "name": "newOwner",
      "outputs": [
        {
          "internalType": "address",
          "name": "",
          "type": "address"
        }
      ],
      "payable": false,
      "stateMutability": "view",
      "type": "function"
    },
    {
      "constant": true,
      "inputs": [],
      "name": "owner",
      "outputs": [
        {
          "internalType": "address",
          "name": "",
          "type": "address"
        }
      ],
      "payable": false,
      "stateMutability": "view",
      "type": "function"
    },
    {
      "constant": false,
      "inputs": [],
      "name": "pause",
      "outputs": [],
      "payable": false,
      "stateMutability": "nonpayable",
      "type": "function"
    },
    {
      "constant": true,
      "inputs": [],
      "name": "paused",
      "outputs": [
        {
          "internalType": "bool",
          "name": "",
          "type": "bool"
        }
      ],
      "payable": false,
      "stateMutability": "view",
      "type": "function"
    },
    {
      "constant": true,
      "inputs": [],
      "name": "rate",
      "outputs": [
        {
          "internalType": "uint256",
          "name": "",
          "type": "uint256"
        }
      ],
      "payable": false,
      "stateMutability": "view",
      "type": "function"
    },
    {
      "constant": true,
      "inputs": [
        {
          "internalType": "address",
          "name": "",
          "type": "address"
        }
      ],
      "name": "stakingActive",
      "outputs": [
        {
          "internalType": "bool",
          "name": "",
          "type": "bool"
        }
      ],
      "payable": false,
      "stateMutability": "view",
      "type": "function"
    },
    {
      "constant": true,
      "inputs": [
        {
          "internalType": "address",
          "name": "",
          "type": "address"
        }
      ],
      "name": "stakingEvent",
      "outputs": [
        {
          "internalType": "uint256",
          "name": "value",
          "type": "uint256"
        },
        {
          "internalType": "uint256",
          "name": "timePeriod",
          "type": "uint256"
        },
        {
          "internalType": "uint256",
          "name": "startTime",
          "type": "uint256"
        }
      ],
      "payable": false,
      "stateMutability": "view",
      "type": "function"
    },
    {
      "constant": true,
      "inputs": [],
      "name": "symbol",
      "outputs": [
        {
          "internalType": "string",
          "name": "",
          "type": "string"
        }
      ],
      "payable": false,
      "stateMutability": "view",
      "type": "function"
    },
    {
      "constant": true,
      "inputs": [],
      "name": "token",
      "outputs": [
        {
          "internalType": "contract fesschain",
          "name": "",
          "type": "address"
        }
      ],
      "payable": false,
      "stateMutability": "view",
      "type": "function"
    },
    {
      "constant": true,
      "inputs": [],
      "name": "totalSupply",
      "outputs": [
        {
          "internalType": "uint256",
          "name": "",
          "type": "uint256"
        }
      ],
      "payable": false,
      "stateMutability": "view",
      "type": "function"
    },
    {
      "constant": false,
      "inputs": [
        {
          "internalType": "address",
          "name": "_newOwner",
          "type": "address"
        }
      ],
      "name": "transferOwnership",
      "outputs": [],
      "payable": false,
      "stateMutability": "nonpayable",
      "type": "function"
    },
    {
      "constant": false,
      "inputs": [],
      "name": "unpause",
      "outputs": [],
      "payable": false,
      "stateMutability": "nonpayable",
      "type": "function"
    },
    {
      "constant": false,
      "inputs": [
        {
          "internalType": "address",
          "name": "recipient",
          "type": "address"
        },
        {
          "internalType": "uint256",
          "name": "amount",
          "type": "uint256"
        }
      ],
      "name": "transfer",
      "outputs": [
        {
          "internalType": "bool",
          "name": "",
          "type": "bool"
        }
      ],
      "payable": false,
      "stateMutability": "nonpayable",
      "type": "function"
    },
    {
      "constant": false,
      "inputs": [
        {
          "internalType": "address",
          "name": "sender",
          "type": "address"
        },
        {
          "internalType": "address",
          "name": "recipient",
          "type": "address"
        },
        {
          "internalType": "uint256",
          "name": "amount",
          "type": "uint256"
        }
      ],
      "name": "transferFrom",
      "outputs": [
        {
          "internalType": "bool",
          "name": "",
          "type": "bool"
        }
      ],
      "payable": false,
      "stateMutability": "nonpayable",
      "type": "function"
    },
    {
      "constant": false,
      "inputs": [
        {
          "internalType": "address payable",
          "name": "wallet",
          "type": "address"
        }
      ],
      "name": "setWalletAddress",
      "outputs": [
        {
          "internalType": "bool",
          "name": "",
          "type": "bool"
        }
      ],
      "payable": false,
      "stateMutability": "nonpayable",
      "type": "function"
    },
    {
      "constant": false,
      "inputs": [],
      "name": "setbaseFees",
      "outputs": [
        {
          "internalType": "bool",
          "name": "",
          "type": "bool"
        }
      ],
      "payable": true,
      "stateMutability": "payable",
      "type": "function"
    },
    {
      "constant": false,
      "inputs": [
        {
          "internalType": "uint256",
          "name": "_rate",
          "type": "uint256"
        }
      ],
      "name": "setRateOfConversion",
      "outputs": [
        {
          "internalType": "bool",
          "name": "",
          "type": "bool"
        }
      ],
      "payable": false,
      "stateMutability": "nonpayable",
      "type": "function"
    },
    {
      "constant": false,
      "inputs": [
        {
          "internalType": "address",
          "name": "_userAddress",
          "type": "address"
        },
        {
          "internalType": "uint256",
          "name": "_value",
          "type": "uint256"
        }
      ],
      "name": "mint",
      "outputs": [
        {
          "internalType": "bool",
          "name": "",
          "type": "bool"
        }
      ],
      "payable": false,
      "stateMutability": "nonpayable",
      "type": "function"
    },
    {
      "constant": false,
      "inputs": [
        {
          "internalType": "uint256",
          "name": "value",
          "type": "uint256"
        }
      ],
      "name": "swapTokens",
      "outputs": [
        {
          "internalType": "bool",
          "name": "",
          "type": "bool"
        }
      ],
      "payable": true,
      "stateMutability": "payable",
      "type": "function"
    },
    {
      "constant": false,
      "inputs": [
        {
          "internalType": "uint256",
          "name": "_value",
          "type": "uint256"
        },
        {
          "internalType": "uint256",
          "name": "_timePeriod",
          "type": "uint256"
        }
      ],
      "name": "staking",
      "outputs": [
        {
          "internalType": "bool",
          "name": "",
          "type": "bool"
        }
      ],
      "payable": false,
      "stateMutability": "nonpayable",
      "type": "function"
    },
    {
      "constant": false,
      "inputs": [],
      "name": "withdrawStaking",
      "outputs": [
        {
          "internalType": "bool",
          "name": "",
          "type": "bool"
        }
      ],
      "payable": false,
      "stateMutability": "nonpayable",
      "type": "function"
    },
    {
      "constant": false,
      "inputs": [
        {
          "internalType": "address[]",
          "name": "_addresses",
          "type": "address[]"
        },
        {
          "internalType": "uint256[]",
          "name": "_amount",
          "type": "uint256[]"
        }
      ],
      "name": "distributeTokens",
      "outputs": [
        {
          "internalType": "bool",
          "name": "",
          "type": "bool"
        }
      ],
      "payable": false,
      "stateMutability": "nonpayable",
      "type": "function"
    },
    {
      "constant": false,
      "inputs": [
        {
          "internalType": "address",
          "name": "tokenAddress",
          "type": "address"
        },
        {
          "internalType": "uint256",
          "name": "tokens",
          "type": "uint256"
        }
      ],
      "name": "transferAnyERC20Token",
      "outputs": [
        {
          "internalType": "bool",
          "name": "success",
          "type": "bool"
        }
      ],
      "payable": false,
      "stateMutability": "nonpayable",
      "type": "function"
    }
  ],
  "bytecode": "0x60806040526001805460ff60a01b191690553480156200001e57600080fd5b506040516200228238038062002282833981810160405260a08110156200004457600080fd5b815160208301516040808501805191519395929483019291846401000000008211156200007057600080fd5b9083019060208201858111156200008657600080fd5b8251640100000000811182820188101715620000a157600080fd5b82525081516020918201929091019080838360005b83811015620000d0578181015183820152602001620000b6565b50505050905090810190601f168015620000fe5780820380516001836020036101000a031916815260200191505b50604052602001805160405193929190846401000000008211156200012257600080fd5b9083019060208201858111156200013857600080fd5b82516401000000008111828201881017156200015357600080fd5b82525081516020918201929091019080838360005b838110156200018257818101518382015260200162000168565b50505050905090810190601f168015620001b05780820380516001836020036101000a031916815260200191505b50604052602090810151600080546001600160a01b0319166001600160a01b038a161790558551909350620001ec92506005918601906200024d565b508151620002029060069060208501906200024d565b50600b80546001600160a01b039283166001600160a01b0319918216179091556009805495909216941693909317909255505067016345785d8a000060085550600c600a55620002f2565b828054600181600116156101000203166002900490600052602060002090601f016020900481019282601f106200029057805160ff1916838001178555620002c0565b82800160010185558215620002c0579182015b82811115620002c0578251825591602001919060010190620002a3565b50620002ce929150620002d2565b5090565b620002ef91905b80821115620002ce5760008155600101620002d9565b90565b611f8080620003026000396000f3fe6080604052600436106101f95760003560e01c80637e44d2cc1161010d578063ac1a386a116100a0578063dd62ed3e1161006f578063dd62ed3e14610819578063f2fde38b14610854578063fa9b96f314610887578063fc0c546a1461088f578063fe784eaa146108a4576101f9565b8063ac1a386a14610783578063d4ee1d90146107b6578063dc39d06d146107cb578063dcee7fe314610804576101f9565b80638da5cb5b116100dc5780638da5cb5b146106e757806395d89b41146106fc578063a457c2d714610711578063a9059cbb1461074a576101f9565b80637e44d2cc146106605780638456cb591461067557806389b53d061461068a5780638cf0df4c146106b4576101f9565b806339509351116101905780635c975abb1161015f5780635c975abb1461059d578063651f5d18146105b25780636da2aae4146105c757806370a082311461061857806379ba50971461064b576101f9565b806339509351146103e05780633f4ba83a1461041957806340c10f19146104305780634bd09c2a14610469576101f9565b80632c4e722e116101cc5780632c4e722e1461033f5780632e9f411e14610354578063313ce5671461038457806335b3568f146103af576101f9565b806306fdde03146101fe578063095ea7b31461028857806318160ddd146102d557806323b872dd146102fc575b600080fd5b34801561020a57600080fd5b506102136108c1565b6040805160208082528351818301528351919283929083019185019080838360005b8381101561024d578181015183820152602001610235565b50505050905090810190601f16801561027a5780820380516001836020036101000a031916815260200191505b509250505060405180910390f35b34801561029457600080fd5b506102c1600480360360408110156102ab57600080fd5b506001600160a01b03813516906020013561094f565b604080519115158252519081900360200190f35b3480156102e157600080fd5b506102ea610966565b60408051918252519081900360200190f35b34801561030857600080fd5b506102c16004803603606081101561031f57600080fd5b506001600160a01b0381358116916020810135909116906040013561096d565b34801561034b57600080fd5b506102ea61099d565b34801561036057600080fd5b506102c16004803603604081101561037757600080fd5b50803590602001356109a3565b34801561039057600080fd5b50610399610ce5565b6040805160ff9092168252519081900360200190f35b3480156103bb57600080fd5b506103c4610cea565b604080516001600160a01b039092168252519081900360200190f35b3480156103ec57600080fd5b506102c16004803603604081101561040357600080fd5b506001600160a01b038135169060200135610cf9565b34801561042557600080fd5b5061042e610d3a565b005b34801561043c57600080fd5b506102c16004803603604081101561045357600080fd5b506001600160a01b038135169060200135610d9f565b34801561047557600080fd5b506102c16004803603604081101561048c57600080fd5b8101906020810181356401000000008111156104a757600080fd5b8201836020820111156104b957600080fd5b803590602001918460208302840111640100000000831117156104db57600080fd5b919080806020026020016040519081016040528093929190818152602001838360200280828437600092019190915250929594936020810193503591505064010000000081111561052b57600080fd5b82018360208201111561053d57600080fd5b8035906020019184602083028401116401000000008311171561055f57600080fd5b919080806020026020016040519081016040528093929190818152602001838360200280828437600092019190915250929550610dda945050505050565b3480156105a957600080fd5b506102c1610e7e565b3480156105be57600080fd5b506102ea610e8e565b3480156105d357600080fd5b506105fa600480360360208110156105ea57600080fd5b50356001600160a01b0316610e94565b60408051938452602084019290925282820152519081900360600190f35b34801561062457600080fd5b506102ea6004803603602081101561063b57600080fd5b50356001600160a01b0316610eb5565b34801561065757600080fd5b5061042e610ed0565b34801561066c57600080fd5b506103c4610f4b565b34801561068157600080fd5b5061042e610f5a565b34801561069657600080fd5b506102c1600480360360208110156106ad57600080fd5b5035610fc6565b3480156106c057600080fd5b506102c1600480360360208110156106d757600080fd5b50356001600160a01b031661100f565b3480156106f357600080fd5b506103c4611024565b34801561070857600080fd5b50610213611033565b34801561071d57600080fd5b506102c16004803603604081101561073457600080fd5b506001600160a01b03813516906020013561108e565b34801561075657600080fd5b506102c16004803603604081101561076d57600080fd5b506001600160a01b0381351690602001356110ca565b34801561078f57600080fd5b506102c1600480360360208110156107a657600080fd5b50356001600160a01b03166110ef565b3480156107c257600080fd5b506103c4611145565b3480156107d757600080fd5b506102c1600480360360408110156107ee57600080fd5b506001600160a01b038135169060200135611154565b34801561081057600080fd5b506102c1611222565b34801561082557600080fd5b506102ea6004803603604081101561083c57600080fd5b506001600160a01b038135811691602001351661143f565b34801561086057600080fd5b5061042e6004803603602081101561087757600080fd5b50356001600160a01b031661146a565b6102c16114a3565b34801561089b57600080fd5b506103c461151a565b6102c1600480360360208110156108ba57600080fd5b5035611529565b6005805460408051602060026001851615610100026000190190941693909304601f810184900484028201840190925281815292918301828280156109475780601f1061091c57610100808354040283529160200191610947565b820191906000526020600020905b81548152906001019060200180831161092a57829003601f168201915b505050505081565b600061095c33848461194a565b5060015b92915050565b6004545b90565b600154600090600160a01b900460ff161561098757600080fd5b610992848484611a36565b506001949350505050565b600a5481565b600154600090600160a01b900460ff16156109bd57600080fd5b600b54604080516370a0823160e01b8152336004820152905185926001600160a01b0316916370a08231916024808301926020929190829003018186803b158015610a0757600080fd5b505afa158015610a1b573d6000803e3d6000fd5b505050506040513d6020811015610a3157600080fd5b50511015610a705760405162461bcd60e51b8152600401808060200182810382526024815260200180611e9c6024913960400191505060405180910390fd5b600b5460408051636eb1769f60e11b815233600482015230602482015290516000926001600160a01b03169163dd62ed3e916044808301926020929190829003018186803b158015610ac157600080fd5b505afa158015610ad5573d6000803e3d6000fd5b505050506040513d6020811015610aeb57600080fd5b5051905083811015610b39576040805162461bcd60e51b8152602060048201526012602482015271616c6c6f77616e63652069732077726f6e6760701b604482015290519081900360640190fd5b600b54604080516323b872dd60e01b81523360048201523060248201526044810187905290516001600160a01b03909216916323b872dd916064808201926020929091908290030181600087803b158015610b9357600080fd5b505af1158015610ba7573d6000803e3d6000fd5b505050506040513d6020811015610bbd57600080fd5b5051610c06576040805162461bcd60e51b81526020600482015260136024820152721d1c985b9cd9995c919493d34819985a5b1959606a1b604482015290519081900360640190fd5b336000908152600d602052604090205460ff1615610c2357600080fd5b8260031480610c325750826006145b80610c3d5750826009145b80610c48575082600c145b610c8d576040805162461bcd60e51b81526020600482015260116024820152701ddc9bdb99c81d1a5b59481c195c9a5bd9607a1b604482015290519081900360640190fd5b505060408051606081018252928352602080840192835242848301908152336000908152600c83528381209551865593516001808701919091559051600290950194909455600d90529020805460ff19168217905590565b601281565b6007546001600160a01b031681565b3360008181526003602090815260408083206001600160a01b0387168452909152812054909161095c918590610d35908663ffffffff611aa016565b61194a565b6000546001600160a01b03163314610d5157600080fd5b600154600160a01b900460ff16610d6757600080fd5b6001805460ff60a01b191690556040517f7805862f689e2f13df9f062ff482ad3ad112aca9e0847911ed832e158c525b3390600090a1565b600154600090600160a01b900460ff1615610db957600080fd5b6000546001600160a01b03163314610dd057600080fd5b61095c8383611b01565b600080546001600160a01b03163314610df257600080fd5b8151835114610e38576040805162461bcd60e51b815260206004820152600d60248201526c496e76616c696420417272617960981b604482015290519081900360640190fd5b825160005b8181101561099257610e75858281518110610e5457fe5b6020026020010151858381518110610e6857fe5b6020026020010151610d9f565b50600101610e3d565b600154600160a01b900460ff1681565b60085481565b600c6020526000908152604090208054600182015460029092015490919083565b6001600160a01b031660009081526002602052604090205490565b6001546001600160a01b03163314610ee757600080fd5b600154600080546040516001600160a01b0393841693909116917f8be0079c531659141344cd1fd0a4f28419497f9722a3daafe3b4186f6b6457e091a360018054600080546001600160a01b03199081166001600160a01b03841617909155169055565b6009546001600160a01b031681565b6000546001600160a01b03163314610f7157600080fd5b600154600160a01b900460ff1615610f8857600080fd5b6001805460ff60a01b1916600160a01b1790556040517f6985a02210a168e66602d3235cb6db0e70f92b3ba4d376a33c0f3d9434bff62590600090a1565b600154600090600160a01b900460ff1615610fe057600080fd5b6000546001600160a01b03163314610ff757600080fd5b6000600a541161100657600080fd5b50600a55600190565b600d6020526000908152604090205460ff1681565b6000546001600160a01b031681565b6006805460408051602060026001851615610100026000190190941693909304601f810184900484028201840190925281815292918301828280156109475780601f1061091c57610100808354040283529160200191610947565b3360008181526003602090815260408083206001600160a01b0387168452909152812054909161095c918590610d35908663ffffffff611bf316565b600154600090600160a01b900460ff16156110e457600080fd5b61095c338484611c50565b600154600090600160a01b900460ff161561110957600080fd5b6000546001600160a01b0316331461112057600080fd5b50600980546001600160a01b0383166001600160a01b03199091161790556001919050565b6001546001600160a01b031681565b600154600090600160a01b900460ff161561116e57600080fd5b6000546001600160a01b0316331461118557600080fd5b6001600160a01b03831661119857600080fd5b600080546040805163a9059cbb60e01b81526001600160a01b0392831660048201526024810186905290519186169263a9059cbb926044808401936020939083900390910190829087803b1580156111ef57600080fd5b505af1158015611203573d6000803e3d6000fd5b505050506040513d602081101561121957600080fd5b50519392505050565b600154600090600160a01b900460ff161561123c57600080fd5b336000908152600d602052604090205460ff16151560011461125d57600080fd5b611265611e57565b50336000908152600c602090815260408083208151606081018352815481526001820154938101849052600290910154918101919091529162278d00916112b2908363ffffffff611d9416565b9050804210156112c157600080fd5b8260200151600314156113bb5782516000906112f7906064906112eb90600c63ffffffff611d9416565b9063ffffffff611ded16565b600b5485516040805163a9059cbb60e01b81523360048201526024810192909252519293506001600160a01b039091169163a9059cbb916044808201926020929091908290030181600087803b15801561135057600080fd5b505af1158015611364573d6000803e3d6000fd5b505050506040513d602081101561137a57600080fd5b5051801561138d575061138d3382610d9f565b61139657600080fd5b5050336000908152600d60205260409020805460ff19169055506001915061096a9050565b8260200151600614156113e55782516000906112f7906064906112eb90601863ffffffff611d9416565b82602001516009141561140f5782516000906112f7906064906112eb90602463ffffffff611d9416565b8260200151600c14156114395782516000906112f7906064906112eb90603063ffffffff611d9416565b50505090565b6001600160a01b03918216600090815260036020908152604080832093909416825291909152205490565b6000546001600160a01b0316331461148157600080fd5b600180546001600160a01b0319166001600160a01b0392909216919091179055565b600154600090600160a01b900460ff16156114bd57600080fd5b6000546001600160a01b031633146114d457600080fd5b3460088190556009546040516001600160a01b039091169180156108fc02916000818181858888f19350505050158015611512573d6000803e3d6000fd5b506001905090565b600b546001600160a01b031681565b600154600090600160a01b900460ff161561154357600080fd5b600b54604080516370a0823160e01b8152336004820152905184926001600160a01b0316916370a08231916024808301926020929190829003018186803b15801561158d57600080fd5b505afa1580156115a1573d6000803e3d6000fd5b505050506040513d60208110156115b757600080fd5b505110156115f65760405162461bcd60e51b8152600401808060200182810382526024815260200180611e9c6024913960400191505060405180910390fd5b600b5460408051636eb1769f60e11b815233600482015230602482015290516000926001600160a01b03169163dd62ed3e916044808301926020929190829003018186803b15801561164757600080fd5b505afa15801561165b573d6000803e3d6000fd5b505050506040513d602081101561167157600080fd5b50519050828110156116bf576040805162461bcd60e51b8152602060048201526012602482015271616c6c6f77616e63652069732077726f6e6760701b604482015290519081900360640190fd5b600b54604080516323b872dd60e01b81523360048201523060248201526044810186905290516001600160a01b03909216916323b872dd916064808201926020929091908290030181600087803b15801561171957600080fd5b505af115801561172d573d6000803e3d6000fd5b505050506040513d602081101561174357600080fd5b505161178d576040805162461bcd60e51b81526020600482015260146024820152731d1c985b9cd9995c88119c9bdb4819985a5b195960621b604482015290519081900360640190fd5b6000600a54116117d3576040805162461bcd60e51b815260206004820152600c60248201526b72617465206973207a65726f60a01b604482015290519081900360640190fd5b6009546001600160a01b0316611830576040805162461bcd60e51b815260206004820152601a60248201527f6665652077616c6c65742061646472657373206e6f7420736574000000000000604482015290519081900360640190fd5b600854341015611887576040805162461bcd60e51b815260206004820152601f60248201527f6665652076616c7565206973206c657373207468656e20726571756972656400604482015290519081900360640190fd5b60006118a360646112eb600a5487611d9490919063ffffffff16565b905060006118b7828663ffffffff611aa016565b90506118c33382610d9f565b611905576040805162461bcd60e51b815260206004820152600e60248201526d135a5b9d1a5b99c819985a5b195960921b604482015290519081900360640190fd5b6009546040516001600160a01b03909116903480156108fc02916000818181858888f1935050505015801561193e573d6000803e3d6000fd5b50600195945050505050565b6001600160a01b03831661198f5760405162461bcd60e51b8152600401808060200182810382526024815260200180611f286024913960400191505060405180910390fd5b6001600160a01b0382166119d45760405162461bcd60e51b8152600401808060200182810382526022815260200180611ec06022913960400191505060405180910390fd5b6001600160a01b03808416600081815260036020908152604080832094871680845294825291829020859055815185815291517f8c5be1e5ebec7d5bd14f71427d1e84f3dd0314c0f7b2291e5b200ac8c7c3b9259281900390910190a3505050565b600154600090600160a01b900460ff1615611a5057600080fd5b611a5b848484611c50565b6001600160a01b038416600090815260036020908152604080832033808552925290912054611a96918691610d35908663ffffffff611bf316565b5060019392505050565b600082820183811015611afa576040805162461bcd60e51b815260206004820152601b60248201527f536166654d6174683a206164646974696f6e206f766572666c6f770000000000604482015290519081900360640190fd5b9392505050565b6001600160a01b038216611b5c576040805162461bcd60e51b815260206004820152601f60248201527f45524332303a206d696e7420746f20746865207a65726f206164647265737300604482015290519081900360640190fd5b600454611b6f908263ffffffff611aa016565b6004556001600160a01b038216600090815260026020526040902054611b9b908263ffffffff611aa016565b6001600160a01b03831660008181526002602090815260408083209490945583518581529351929391927fddf252ad1be2c89b69c2b068fc378daa952ba7f163c4a11628f55a4df523b3ef9281900390910190a35050565b600082821115611c4a576040805162461bcd60e51b815260206004820152601e60248201527f536166654d6174683a207375627472616374696f6e206f766572666c6f770000604482015290519081900360640190fd5b50900390565b6001600160a01b038316611c955760405162461bcd60e51b8152600401808060200182810382526025815260200180611f036025913960400191505060405180910390fd5b6001600160a01b038216611cda5760405162461bcd60e51b8152600401808060200182810382526023815260200180611e796023913960400191505060405180910390fd5b6001600160a01b038316600090815260026020526040902054611d03908263ffffffff611bf316565b6001600160a01b038085166000908152600260205260408082209390935590841681522054611d38908263ffffffff611aa016565b6001600160a01b0380841660008181526002602090815260409182902094909455805185815290519193928716927fddf252ad1be2c89b69c2b068fc378daa952ba7f163c4a11628f55a4df523b3ef92918290030190a3505050565b600082611da357506000610960565b82820282848281611db057fe5b0414611afa5760405162461bcd60e51b8152600401808060200182810382526021815260200180611ee26021913960400191505060405180910390fd5b6000808211611e43576040805162461bcd60e51b815260206004820152601a60248201527f536166654d6174683a206469766973696f6e206279207a65726f000000000000604482015290519081900360640190fd5b6000828481611e4e57fe5b04949350505050565b6040518060600160405280600081526020016000815260200160008152509056fe45524332303a207472616e7366657220746f20746865207a65726f206164647265737362616c616e6365206f6620612075736572206973206c657373207468656e2076616c756545524332303a20617070726f766520746f20746865207a65726f2061646472657373536166654d6174683a206d756c7469706c69636174696f6e206f766572666c6f7745524332303a207472616e736665722066726f6d20746865207a65726f206164647265737345524332303a20617070726f76652066726f6d20746865207a65726f2061646472657373a265627a7a72315820921baa09771f6a5b9b5e1b014740520c76cc05c4eba68ee23bbc8f45e03c778164736f6c63430005100032",
  "source": "\npragma solidity 0.5.16;\n\n\ncontract fesschain {\n\n    function transferFrom (address,address, uint256) external returns (bool);\n    function balanceOf(address) public view returns (uint256);\n    function allowance(address, address) external view returns (uint256);\n    function transfer (address, uint256) external returns (bool);\n\n}\n\ncontract Owned {\n\n    address public owner;\n    address public newOwner;\n\n    event OwnershipTransferred(address indexed from, address indexed _to);\n\n    constructor(address _owner) public {\n        owner = _owner;\n    }\n\n    modifier onlyOwner {\n        require(msg.sender == owner);\n        _;\n    }\n\n    function transferOwnership(address _newOwner) public onlyOwner {\n        newOwner = _newOwner;\n    }\n    function acceptOwnership() public {\n        require(msg.sender == newOwner);\n        emit OwnershipTransferred(owner, newOwner);\n        owner = newOwner;\n        newOwner = address(0);\n    }\n}\n\ncontract Pausable is Owned {\n    event Pause();\n    event Unpause();\n\n    bool public paused = false;\n\n    modifier whenNotPaused() {\n      require(!paused);\n      _;\n    }\n\n    modifier whenPaused() {\n      require(paused);\n      _;\n    }\n\n    function pause() onlyOwner whenNotPaused public {\n      paused = true;\n      emit Pause();\n    }\n\n    function unpause() onlyOwner whenPaused public {\n      paused = false;\n      emit Unpause();\n    }\n}\n\n/**\n * @dev Interface of the ERC20 standard as defined in the EIP. Does not include\n * the optional functions; to access them see `ERC20Detailed`.\n */\ninterface IERC20 {\n    /**\n     * @dev Returns the amount of tokens in existence.\n     */\n    function totalSupply() external view returns (uint256);\n\n    /**\n     * @dev Returns the amount of tokens owned by `account`.\n     */\n    function balanceOf(address account) external view returns (uint256);\n\n    /**\n     * @dev Moves `amount` tokens from the caller's account to `recipient`.\n     *\n     * Returns a boolean value indicating whether the operation succeeded.\n     *\n     * Emits a `Transfer` event.\n     */\n    function transfer(address recipient, uint256 amount) external returns (bool);\n\n    /**\n     * @dev Returns the remaining number of tokens that `spender` will be\n     * allowed to spend on behalf of `owner` through `transferFrom`. This is\n     * zero by default.\n     *\n     * This value changes when `approve` or `transferFrom` are called.\n     */\n    function allowance(address owner, address spender) external view returns (uint256);\n\n    /**\n     * @dev Sets `amount` as the allowance of `spender` over the caller's tokens.\n     *\n     * Returns a boolean value indicating whether the operation succeeded.\n     *\n     * > Beware that changing an allowance with this method brings the risk\n     * that someone may use both the old and the new allowance by unfortunate\n     * transaction ordering. One possible solution to mitigate this race\n     * condition is to first reduce the spender's allowance to 0 and set the\n     * desired value afterwards:\n     * https://github.com/ethereum/EIPs/issues/20#issuecomment-263524729\n     *\n     * Emits an `Approval` event.\n     */\n    function approve(address spender, uint256 amount) external returns (bool);\n\n    /**\n     * @dev Moves `amount` tokens from `sender` to `recipient` using the\n     * allowance mechanism. `amount` is then deducted from the caller's\n     * allowance.\n     *\n     * Returns a boolean value indicating whether the operation succeeded.\n     *\n     * Emits a `Transfer` event.\n     */\n    function transferFrom(address sender, address recipient, uint256 amount) external returns (bool);\n\n    /**\n     * @dev Emitted when `value` tokens are moved from one account (`from`) to\n     * another (`to`).\n     *\n     * Note that `value` may be zero.\n     */\n    event Transfer(address indexed from, address indexed to, uint256 value);\n\n    /**\n     * @dev Emitted when the allowance of a `spender` for an `owner` is set by\n     * a call to `approve`. `value` is the new allowance.\n     */\n    event Approval(address indexed owner, address indexed spender, uint256 value);\n}\n\n// File: openzeppelin-solidity/contracts/math/SafeMath.sol\n\n/**\n * @dev Wrappers over Solidity's arithmetic operations with added overflow\n * checks.\n *\n * Arithmetic operations in Solidity wrap on overflow. This can easily result\n * in bugs, because programmers usually assume that an overflow raises an\n * error, which is the standard behavior in high level programming languages.\n * `SafeMath` restores this intuition by reverting the transaction when an\n * operation overflows.\n *\n * Using this library instead of the unchecked operations eliminates an entire\n * class of bugs, so it's recommended to use it always.\n */\nlibrary SafeMath {\n    /**\n     * @dev Returns the addition of two unsigned integers, reverting on\n     * overflow.\n     *\n     * Counterpart to Solidity's `+` operator.\n     *\n     * Requirements:\n     * - Addition cannot overflow.\n     */\n    function add(uint256 a, uint256 b) internal pure returns (uint256) {\n        uint256 c = a + b;\n        require(c >= a, \"SafeMath: addition overflow\");\n\n        return c;\n    }\n\n    /**\n     * @dev Returns the subtraction of two unsigned integers, reverting on\n     * overflow (when the result is negative).\n     *\n     * Counterpart to Solidity's `-` operator.\n     *\n     * Requirements:\n     * - Subtraction cannot overflow.\n     */\n    function sub(uint256 a, uint256 b) internal pure returns (uint256) {\n        require(b <= a, \"SafeMath: subtraction overflow\");\n        uint256 c = a - b;\n\n        return c;\n    }\n\n    /**\n     * @dev Returns the multiplication of two unsigned integers, reverting on\n     * overflow.\n     *\n     * Counterpart to Solidity's `*` operator.\n     *\n     * Requirements:\n     * - Multiplication cannot overflow.\n     */\n    function mul(uint256 a, uint256 b) internal pure returns (uint256) {\n        // Gas optimization: this is cheaper than requiring 'a' not being zero, but the\n        // benefit is lost if 'b' is also tested.\n        // See: https://github.com/OpenZeppelin/openzeppelin-solidity/pull/522\n        if (a == 0) {\n            return 0;\n        }\n\n        uint256 c = a * b;\n        require(c / a == b, \"SafeMath: multiplication overflow\");\n\n        return c;\n    }\n\n    /**\n     * @dev Returns the integer division of two unsigned integers. Reverts on\n     * division by zero. The result is rounded towards zero.\n     *\n     * Counterpart to Solidity's `/` operator. Note: this function uses a\n     * `revert` opcode (which leaves remaining gas untouched) while Solidity\n     * uses an invalid opcode to revert (consuming all remaining gas).\n     *\n     * Requirements:\n     * - The divisor cannot be zero.\n     */\n    function div(uint256 a, uint256 b) internal pure returns (uint256) {\n        // Solidity only automatically asserts when dividing by 0\n        require(b > 0, \"SafeMath: division by zero\");\n        uint256 c = a / b;\n        // assert(a == b * c + a % b); // There is no case in which this doesn't hold\n\n        return c;\n    }\n\n}\n\n// File: openzeppelin-solidity/contracts/token/ERC20/ERC20.sol\n\n/**\n * @dev Implementation of the `IERC20` interface.\n *\n * This implementation is agnostic to the way tokens are created. This means\n * that a supply mechanism has to be added in a derived contract using `_mint`.\n * For a generic mechanism see `ERC20Mintable`.\n *\n * *For a detailed writeup see our guide [How to implement supply\n * mechanisms](https://forum.zeppelin.solutions/t/how-to-implement-erc20-supply-mechanisms/226).*\n *\n * We have followed general OpenZeppelin guidelines: functions revert instead\n * of returning `false` on failure. This behavior is nonetheless conventional\n * and does not conflict with the expectations of ERC20 applications.\n *\n * Additionally, an `Approval` event is emitted on calls to `transferFrom`.\n * This allows applications to reconstruct the allowance for all accounts just\n * by listening to said events. Other implementations of the EIP may not emit\n * these events, as it isn't required by the specification.\n *\n * Finally, the non-standard `decreaseAllowance` and `increaseAllowance`\n * functions have been added to mitigate the well-known issues around setting\n * allowances. See `IERC20.approve`.\n */\ncontract ERC20 is IERC20, Pausable {\n    using SafeMath for uint256;\n\n    mapping (address => uint256) private _balances;\n\n    mapping (address => mapping (address => uint256)) private _allowances;\n\n    uint256 private _totalSupply;\n\n    /**\n     * @dev See `IERC20.totalSupply`.\n     */\n    function totalSupply() public view returns (uint256) {\n        return _totalSupply;\n    }\n\n    /**\n     * @dev See `IERC20.balanceOf`.\n     */\n    function balanceOf(address account) public view returns (uint256) {\n        return _balances[account];\n    }\n\n\n    /**\n     * @dev See `IERC20.allowance`.\n     */\n    function allowance(address owner, address spender) public view returns (uint256) {\n        return _allowances[owner][spender];\n    }\n\n    /**\n     * @dev See `IERC20.approve`.\n     *\n     * Requirements:\n     *\n     * - `spender` cannot be the zero address.\n     */\n    function approve(address spender, uint256 value) public returns (bool) {\n        _approve(msg.sender, spender, value);\n        return true;\n    }\n\n\n    /**\n     * @dev Atomically increases the allowance granted to `spender` by the caller.\n     *\n     * This is an alternative to `approve` that can be used as a mitigation for\n     * problems described in `IERC20.approve`.\n     *\n     * Emits an `Approval` event indicating the updated allowance.\n     *\n     * Requirements:\n     *\n     * - `spender` cannot be the zero address.\n     */\n    function increaseAllowance(address spender, uint256 addedValue) public returns (bool) {\n        _approve(msg.sender, spender, _allowances[msg.sender][spender].add(addedValue));\n        return true;\n    }\n\n    /**\n     * @dev Atomically decreases the allowance granted to `spender` by the caller.\n     *\n     * This is an alternative to `approve` that can be used as a mitigation for\n     * problems described in `IERC20.approve`.\n     *\n     * Emits an `Approval` event indicating the updated allowance.\n     *\n     * Requirements:\n     *\n     * - `spender` cannot be the zero address.\n     * - `spender` must have allowance for the caller of at least\n     * `subtractedValue`.\n     */\n    function decreaseAllowance(address spender, uint256 subtractedValue) public returns (bool) {\n        _approve(msg.sender, spender, _allowances[msg.sender][spender].sub(subtractedValue));\n        return true;\n    }\n\n    /**\n     * @dev Moves tokens `amount` from `sender` to `recipient`.\n     *\n     * This is internal function is equivalent to `transfer`, and can be used to\n     * e.g. implement automatic token fees, slashing mechanisms, etc.\n     *\n     * Emits a `Transfer` event.\n     *\n     * Requirements:\n     *\n     * - `sender` cannot be the zero address.\n     * - `recipient` cannot be the zero address.\n     * - `sender` must have a balance of at least `amount`.\n     */\n    function _transfer(address sender, address recipient, uint256 amount) internal {\n        require(sender != address(0), \"ERC20: transfer from the zero address\");\n        require(recipient != address(0), \"ERC20: transfer to the zero address\");\n\n        _balances[sender] = _balances[sender].sub(amount);\n        _balances[recipient] = _balances[recipient].add(amount);\n        emit Transfer(sender, recipient, amount);\n    }\n\n    /** @dev Creates `amount` tokens and assigns them to `account`, increasing\n     * the total supply.\n     *\n     * Emits a `Transfer` event with `from` set to the zero address.\n     *\n     * Requirements\n     *\n     * - `to` cannot be the zero address.\n     */\n    function _mint(address account, uint256 amount) internal {\n        require(account != address(0), \"ERC20: mint to the zero address\");\n\n        _totalSupply = _totalSupply.add(amount);\n        _balances[account] = _balances[account].add(amount);\n        emit Transfer(address(0), account, amount);\n    }\n\n     /**\n     * @dev Destoys `amount` tokens from `account`, reducing the\n     * total supply.\n     *\n     * Emits a `Transfer` event with `to` set to the zero address.\n     *\n     * Requirements\n     *\n     * - `account` cannot be the zero address.\n     * - `account` must have at least `amount` tokens.\n     */\n    function _burn(address account, uint256 value) internal {\n        require(account != address(0), \"ERC20: burn from the zero address\");\n\n        _totalSupply = _totalSupply.sub(value);\n        _balances[account] = _balances[account].sub(value);\n        emit Transfer(account, address(0), value);\n    }\n\n    /**\n     * @dev See `IERC20.transferFrom`.\n     *\n     * Emits an `Approval` event indicating the updated allowance. This is not\n     * required by the EIP. See the note at the beginning of `ERC20`;\n     *\n     * Requirements:\n     * - `sender` and `recipient` cannot be the zero address.\n     * - `sender` must have a balance of at least `value`.\n     * - the caller must have allowance for `sender`'s tokens of at least\n     * `amount`.\n     */\n    function _transferFrom(address sender, address recipient, uint256 amount) internal whenNotPaused returns (bool) {\n        _transfer(sender, recipient, amount);\n        _approve(sender, msg.sender, _allowances[sender][msg.sender].sub(amount));\n        return true;\n    }\n\n\n    /**\n     * @dev Sets `amount` as the allowance of `spender` over the `owner`s tokens.\n     *\n     * This is internal function is equivalent to `approve`, and can be used to\n     * e.g. set automatic allowances for certain subsystems, etc.\n     *\n     * Emits an `Approval` event.\n     *\n     * Requirements:\n     *\n     * - `owner` cannot be the zero address.\n     * - `spender` cannot be the zero address.\n     */\n    function _approve(address owner, address spender, uint256 value) internal {\n        require(owner != address(0), \"ERC20: approve from the zero address\");\n        require(spender != address(0), \"ERC20: approve to the zero address\");\n\n        _allowances[owner][spender] = value;\n        emit Approval(owner, spender, value);\n    }\n\n}\n\ncontract Fessstable is ERC20 {\n\n    using SafeMath for uint256;\n    string  public  name;\n    string  public  symbol;\n    uint8   public constant decimals = 18;\n    address public fesschainAddress;\n\n    uint256 public feesAmount;\n    address payable public feesWallet;\n    uint256 public rate; \n    fesschain public token;\n    \n\n    struct stakingDetails {\n\n        uint256 value;\n        uint256 timePeriod;\n        uint256 startTime;\n\n    }\n\n    mapping(address => stakingDetails) public stakingEvent;\n    mapping(address => bool) public stakingActive;\n    \n    constructor(address _owner, address payable _feesWallet, string memory _name, string memory _symbol, fesschain _fesschainAddress) public Owned(_owner) {\n\n               name = _name;\n               symbol = _symbol;\n               token = _fesschainAddress;\n               feesWallet = _feesWallet;\n               feesAmount = 100000000000000000 wei;\n               rate = 12;\n\n    }\n\n    /**\n     * @dev See `IERC20.transfer`.\n     *\n     * Requirements:\n     *\n     * - `recipient` cannot be the zero address.\n     * - the caller must have a balance of at least `amount`.\n     */\n    function transfer(address recipient, uint256 amount) public whenNotPaused returns (bool) {\n\n        super._transfer(msg.sender, recipient, amount);\n\n\n        return true;\n    }\n\n    /**\n     * @dev See `IERC20.transferFrom`.\n     *\n     * Emits an `Approval` event indicating the updated allowance. This is not\n     * required by the EIP. See the note at the beginning of `ERC20`;\n     *\n     * Requirements:\n     * - `sender` and `recipient` cannot be the zero address.\n     * - `sender` must have a balance of at least `value`.\n     * - the caller must have allowance for `sender`'s tokens of at least\n     * `amount`.\n     */\n    function transferFrom(address sender, address recipient, uint256 amount) public whenNotPaused returns (bool) {\n\n        super._transferFrom(sender, recipient, amount);\n\n        return true;\n    }\n\n\n    function setWalletAddress(address payable wallet) public whenNotPaused onlyOwner returns (bool) {\n\n      feesWallet = wallet;\n\n        return true;\n    }\n\n    function setbaseFees() public payable whenNotPaused onlyOwner returns (bool) {\n\n      feesAmount = msg.value;\n      feesWallet.transfer(msg.value);\n        return true;\n    }\n\n    function setRateOfConversion(uint256 _rate) public whenNotPaused onlyOwner returns (bool) {\n\n    require (rate>0);\n      rate = _rate;\n\n        return true;\n    }\n\n\n    function mint(address _userAddress, uint256 _value) public whenNotPaused onlyOwner returns (bool) {\n\n    _mint(_userAddress,_value);\n\n        return true;\n    }\n\n    \n    function swapTokens(uint256 value) public whenNotPaused payable returns (bool) {\n\n       require(token.balanceOf(msg.sender) >= value,'balance of a user is less then value');\n       \n       uint256 checkAllowance = token.allowance(msg.sender, address(this)); \n\n       require (checkAllowance >= value, 'allowance is wrong');\n       require(token.transferFrom(msg.sender,address(this),value),'transfer From failed');\n       require(rate > 0, 'rate is zero');\n       require(feesWallet != address(0), 'fee wallet address not set');\n       require(msg.value >= feesAmount, 'fee value is less then required');\n\n       uint256 additionalValue = value.mul(rate).div(100);\n       uint256 totalvalueToSent = additionalValue.add(value);       \n\n       require(mint(msg.sender,totalvalueToSent),'Minting failed');\n       feesWallet.transfer(msg.value);\n       \n        return true;\n    }    \n\n    function staking(uint256 _value, uint256 _timePeriod) public whenNotPaused returns (bool) {\n\n       require(token.balanceOf(msg.sender) >= _value,'balance of a user is less then value');\n\n       uint256 checkAllowance = token.allowance(msg.sender, address(this)); \n\n       require (checkAllowance >= _value, 'allowance is wrong');\n       require(token.transferFrom(msg.sender,address(this),_value),'transferFROM failed');\n\n       require(stakingActive[msg.sender] == false);\n       require(_timePeriod == 3 || _timePeriod == 6  || _timePeriod == 9  || _timePeriod == 12 , 'wrong time period');\n       \n     stakingEvent[msg.sender] = stakingDetails(\n       {\n\n         value : _value,\n         timePeriod : _timePeriod,\n         startTime : now\n\n\n       });\n\n     stakingActive[msg.sender] = true;\n\n        return true;\n    }    \n\n    function withdrawStaking() public whenNotPaused returns (bool) {\n\n        require(stakingActive[msg.sender] == true);\n        stakingDetails memory stakingTemp = stakingEvent[msg.sender];\n\n        uint256 oneMonthInSeconds = 2592000;\n        uint256 stakingTineInseconds =  (stakingTemp.timePeriod).mul(2592000);\n        require(now >= stakingTineInseconds);\n\n        if(stakingTemp.timePeriod == 3){\n        \n        uint256 valueToTransfer = stakingTemp.value.mul(12).div(100);    \n        require(token.transfer(msg.sender,stakingTemp.value) && mint(msg.sender,valueToTransfer));\n        stakingActive[msg.sender] = false;\n        return true;\n\n        }else if (stakingTemp.timePeriod == 6) {\n\n        uint256 valueToTransfer = stakingTemp.value.mul(24).div(100);    \n        require(token.transfer(msg.sender,stakingTemp.value) && mint(msg.sender,valueToTransfer));\n        stakingActive[msg.sender] = false;\n        return true;\n            \n        }else if(stakingTemp.timePeriod == 9){\n\n        uint256 valueToTransfer = stakingTemp.value.mul(36).div(100);    \n        require(token.transfer(msg.sender,stakingTemp.value) && mint(msg.sender,valueToTransfer));\n        stakingActive[msg.sender] = false;\n        return true;\n\n        }else if (stakingTemp.timePeriod == 12) {\n\n        uint256 valueToTransfer = stakingTemp.value.mul(48).div(100);    \n        require(token.transfer(msg.sender,stakingTemp.value) && mint(msg.sender,valueToTransfer));\n        stakingActive[msg.sender] = false;\n        return true;\n        \n        }\n\n    }    \n\n\n     /**\n      * @dev distribution function to tokens. Best works upto 50 addresses in one time. Maximum limit is 200 addresses in one time.\n      * @param _addresses array of address in serial order\n      * @param _amount amount in serial order with respect to address array\n      */\n      function distributeTokens(address[] memory _addresses, uint256[] memory _amount) public  onlyOwner returns (bool){\n\n          require(_addresses.length == _amount.length,\"Invalid Array\");\n          uint256 count = _addresses.length;\n          for (uint256 i = 0; i < count; i++){\n\n                mint(_addresses[i],_amount[i]);\n          }\n          return true;\n      }\n\n    function () external payable {\n    \n       revert();\n\n    }\n    \n function transferAnyERC20Token(address tokenAddress, uint tokens) public whenNotPaused onlyOwner returns (bool success) {\n        require(tokenAddress != address(0));\n        return ERC20(tokenAddress).transfer(owner, tokens);\n    }}",
  "sourcePath": "/home/abhi/Projects/fessstable/contracts/Fessstable.sol",
  "compiler": {
    "name": "solc",
    "version": "0.5.16+commit.9c3226ce.Emscripten.clang"
  },
  "schemaVersion": "3.0.22",
  "updatedAt": "2020-08-24T08:55:11.536Z",
  "devdoc": {
    "methods": {
      "allowance(address,address)": {
        "details": "See `IERC20.allowance`."
      },
      "approve(address,uint256)": {
        "details": "See `IERC20.approve`.     * Requirements:     * - `spender` cannot be the zero address."
      },
      "balanceOf(address)": {
        "details": "See `IERC20.balanceOf`."
      },
      "decreaseAllowance(address,uint256)": {
        "details": "Atomically decreases the allowance granted to `spender` by the caller.     * This is an alternative to `approve` that can be used as a mitigation for problems described in `IERC20.approve`.     * Emits an `Approval` event indicating the updated allowance.     * Requirements:     * - `spender` cannot be the zero address. - `spender` must have allowance for the caller of at least `subtractedValue`."
      },
      "distributeTokens(address[],uint256[])": {
        "details": "distribution function to tokens. Best works upto 50 addresses in one time. Maximum limit is 200 addresses in one time.",
        "params": {
          "_addresses": "array of address in serial order",
          "_amount": "amount in serial order with respect to address array"
        }
      },
      "increaseAllowance(address,uint256)": {
        "details": "Atomically increases the allowance granted to `spender` by the caller.     * This is an alternative to `approve` that can be used as a mitigation for problems described in `IERC20.approve`.     * Emits an `Approval` event indicating the updated allowance.     * Requirements:     * - `spender` cannot be the zero address."
      },
      "totalSupply()": {
        "details": "See `IERC20.totalSupply`."
      },
      "transfer(address,uint256)": {
        "details": "See `IERC20.transfer`.     * Requirements:     * - `recipient` cannot be the zero address. - the caller must have a balance of at least `amount`."
      },
      "transferFrom(address,address,uint256)": {
        "details": "See `IERC20.transferFrom`.     * Emits an `Approval` event indicating the updated allowance. This is not required by the EIP. See the note at the beginning of `ERC20`;     * Requirements: - `sender` and `recipient` cannot be the zero address. - `sender` must have a balance of at least `value`. - the caller must have allowance for `sender`'s tokens of at least `amount`."
      }
    }
  },
  "userdoc": {
    "methods": {}
  }
}