{
  "contractName": "Owned",
  "abi": [
    {
      "inputs": [
        {
          "internalType": "address",
          "name": "_owner",
          "type": "address"
        }
      ],
      "payable": false,
      "stateMutability": "nonpayable",
      "type": "constructor"
    },
    {
      "anonymous": false,
      "inputs": [
        {
          "indexed": true,
          "internalType": "address",
          "name": "from",
          "type": "address"
        },
        {
          "indexed": true,
          "internalType": "address",
          "name": "_to",
          "type": "address"
        }
      ],
      "name": "OwnershipTransferred",
      "type": "event"
    },
    {
      "constant": true,
      "inputs": [],
      "name": "newOwner",
      "outputs": [
        {
          "internalType": "address",
          "name": "",
          "type": "address"
        }
      ],
      "payable": false,
      "stateMutability": "view",
      "type": "function"
    },
    {
      "constant": true,
      "inputs": [],
      "name": "owner",
      "outputs": [
        {
          "internalType": "address",
          "name": "",
          "type": "address"
        }
      ],
      "payable": false,
      "stateMutability": "view",
      "type": "function"
    },
    {
      "constant": false,
      "inputs": [
        {
          "internalType": "address",
          "name": "_newOwner",
          "type": "address"
        }
      ],
      "name": "transferOwnership",
      "outputs": [],
      "payable": false,
      "stateMutability": "nonpayable",
      "type": "function"
    },
    {
      "constant": false,
      "inputs": [],
      "name": "acceptOwnership",
      "outputs": [],
      "payable": false,
      "stateMutability": "nonpayable",
      "type": "function"
    }
  ],
  "bytecode": "0x608060405234801561001057600080fd5b506040516102193803806102198339818101604052602081101561003357600080fd5b5051600080546001600160a01b039092166001600160a01b03199092169190911790556101b4806100656000396000f3fe608060405234801561001057600080fd5b506004361061004c5760003560e01c806379ba5097146100515780638da5cb5b1461005b578063d4ee1d901461007f578063f2fde38b14610087575b600080fd5b6100596100ad565b005b610063610128565b604080516001600160a01b039092168252519081900360200190f35b610063610137565b6100596004803603602081101561009d57600080fd5b50356001600160a01b0316610146565b6001546001600160a01b031633146100c457600080fd5b600154600080546040516001600160a01b0393841693909116917f8be0079c531659141344cd1fd0a4f28419497f9722a3daafe3b4186f6b6457e091a360018054600080546001600160a01b03199081166001600160a01b03841617909155169055565b6000546001600160a01b031681565b6001546001600160a01b031681565b6000546001600160a01b0316331461015d57600080fd5b600180546001600160a01b0319166001600160a01b039290921691909117905556fea265627a7a72315820d5eb257b0a82f8c64cce8a6be3db314dbaffb09dce7882fb9753f30d589debe264736f6c63430005100032",
  "source": "\npragma solidity 0.5.16;\n\n\ncontract fesschain {\n\n    function transferFrom (address,address, uint256) external returns (bool);\n    function balanceOf(address) public view returns (uint256);\n    function allowance(address, address) external view returns (uint256);\n    function transfer (address, uint256) external returns (bool);\n\n}\n\ncontract Owned {\n\n    address public owner;\n    address public newOwner;\n\n    event OwnershipTransferred(address indexed from, address indexed _to);\n\n    constructor(address _owner) public {\n        owner = _owner;\n    }\n\n    modifier onlyOwner {\n        require(msg.sender == owner);\n        _;\n    }\n\n    function transferOwnership(address _newOwner) public onlyOwner {\n        newOwner = _newOwner;\n    }\n    function acceptOwnership() public {\n        require(msg.sender == newOwner);\n        emit OwnershipTransferred(owner, newOwner);\n        owner = newOwner;\n        newOwner = address(0);\n    }\n}\n\ncontract Pausable is Owned {\n    event Pause();\n    event Unpause();\n\n    bool public paused = false;\n\n    modifier whenNotPaused() {\n      require(!paused);\n      _;\n    }\n\n    modifier whenPaused() {\n      require(paused);\n      _;\n    }\n\n    function pause() onlyOwner whenNotPaused public {\n      paused = true;\n      emit Pause();\n    }\n\n    function unpause() onlyOwner whenPaused public {\n      paused = false;\n      emit Unpause();\n    }\n}\n\n/**\n * @dev Interface of the ERC20 standard as defined in the EIP. Does not include\n * the optional functions; to access them see `ERC20Detailed`.\n */\ninterface IERC20 {\n    /**\n     * @dev Returns the amount of tokens in existence.\n     */\n    function totalSupply() external view returns (uint256);\n\n    /**\n     * @dev Returns the amount of tokens owned by `account`.\n     */\n    function balanceOf(address account) external view returns (uint256);\n\n    /**\n     * @dev Moves `amount` tokens from the caller's account to `recipient`.\n     *\n     * Returns a boolean value indicating whether the operation succeeded.\n     *\n     * Emits a `Transfer` event.\n     */\n    function transfer(address recipient, uint256 amount) external returns (bool);\n\n    /**\n     * @dev Returns the remaining number of tokens that `spender` will be\n     * allowed to spend on behalf of `owner` through `transferFrom`. This is\n     * zero by default.\n     *\n     * This value changes when `approve` or `transferFrom` are called.\n     */\n    function allowance(address owner, address spender) external view returns (uint256);\n\n    /**\n     * @dev Sets `amount` as the allowance of `spender` over the caller's tokens.\n     *\n     * Returns a boolean value indicating whether the operation succeeded.\n     *\n     * > Beware that changing an allowance with this method brings the risk\n     * that someone may use both the old and the new allowance by unfortunate\n     * transaction ordering. One possible solution to mitigate this race\n     * condition is to first reduce the spender's allowance to 0 and set the\n     * desired value afterwards:\n     * https://github.com/ethereum/EIPs/issues/20#issuecomment-263524729\n     *\n     * Emits an `Approval` event.\n     */\n    function approve(address spender, uint256 amount) external returns (bool);\n\n    /**\n     * @dev Moves `amount` tokens from `sender` to `recipient` using the\n     * allowance mechanism. `amount` is then deducted from the caller's\n     * allowance.\n     *\n     * Returns a boolean value indicating whether the operation succeeded.\n     *\n     * Emits a `Transfer` event.\n     */\n    function transferFrom(address sender, address recipient, uint256 amount) external returns (bool);\n\n    /**\n     * @dev Emitted when `value` tokens are moved from one account (`from`) to\n     * another (`to`).\n     *\n     * Note that `value` may be zero.\n     */\n    event Transfer(address indexed from, address indexed to, uint256 value);\n\n    /**\n     * @dev Emitted when the allowance of a `spender` for an `owner` is set by\n     * a call to `approve`. `value` is the new allowance.\n     */\n    event Approval(address indexed owner, address indexed spender, uint256 value);\n}\n\n// File: openzeppelin-solidity/contracts/math/SafeMath.sol\n\n/**\n * @dev Wrappers over Solidity's arithmetic operations with added overflow\n * checks.\n *\n * Arithmetic operations in Solidity wrap on overflow. This can easily result\n * in bugs, because programmers usually assume that an overflow raises an\n * error, which is the standard behavior in high level programming languages.\n * `SafeMath` restores this intuition by reverting the transaction when an\n * operation overflows.\n *\n * Using this library instead of the unchecked operations eliminates an entire\n * class of bugs, so it's recommended to use it always.\n */\nlibrary SafeMath {\n    /**\n     * @dev Returns the addition of two unsigned integers, reverting on\n     * overflow.\n     *\n     * Counterpart to Solidity's `+` operator.\n     *\n     * Requirements:\n     * - Addition cannot overflow.\n     */\n    function add(uint256 a, uint256 b) internal pure returns (uint256) {\n        uint256 c = a + b;\n        require(c >= a, \"SafeMath: addition overflow\");\n\n        return c;\n    }\n\n    /**\n     * @dev Returns the subtraction of two unsigned integers, reverting on\n     * overflow (when the result is negative).\n     *\n     * Counterpart to Solidity's `-` operator.\n     *\n     * Requirements:\n     * - Subtraction cannot overflow.\n     */\n    function sub(uint256 a, uint256 b) internal pure returns (uint256) {\n        require(b <= a, \"SafeMath: subtraction overflow\");\n        uint256 c = a - b;\n\n        return c;\n    }\n\n    /**\n     * @dev Returns the multiplication of two unsigned integers, reverting on\n     * overflow.\n     *\n     * Counterpart to Solidity's `*` operator.\n     *\n     * Requirements:\n     * - Multiplication cannot overflow.\n     */\n    function mul(uint256 a, uint256 b) internal pure returns (uint256) {\n        // Gas optimization: this is cheaper than requiring 'a' not being zero, but the\n        // benefit is lost if 'b' is also tested.\n        // See: https://github.com/OpenZeppelin/openzeppelin-solidity/pull/522\n        if (a == 0) {\n            return 0;\n        }\n\n        uint256 c = a * b;\n        require(c / a == b, \"SafeMath: multiplication overflow\");\n\n        return c;\n    }\n\n    /**\n     * @dev Returns the integer division of two unsigned integers. Reverts on\n     * division by zero. The result is rounded towards zero.\n     *\n     * Counterpart to Solidity's `/` operator. Note: this function uses a\n     * `revert` opcode (which leaves remaining gas untouched) while Solidity\n     * uses an invalid opcode to revert (consuming all remaining gas).\n     *\n     * Requirements:\n     * - The divisor cannot be zero.\n     */\n    function div(uint256 a, uint256 b) internal pure returns (uint256) {\n        // Solidity only automatically asserts when dividing by 0\n        require(b > 0, \"SafeMath: division by zero\");\n        uint256 c = a / b;\n        // assert(a == b * c + a % b); // There is no case in which this doesn't hold\n\n        return c;\n    }\n\n}\n\n// File: openzeppelin-solidity/contracts/token/ERC20/ERC20.sol\n\n/**\n * @dev Implementation of the `IERC20` interface.\n *\n * This implementation is agnostic to the way tokens are created. This means\n * that a supply mechanism has to be added in a derived contract using `_mint`.\n * For a generic mechanism see `ERC20Mintable`.\n *\n * *For a detailed writeup see our guide [How to implement supply\n * mechanisms](https://forum.zeppelin.solutions/t/how-to-implement-erc20-supply-mechanisms/226).*\n *\n * We have followed general OpenZeppelin guidelines: functions revert instead\n * of returning `false` on failure. This behavior is nonetheless conventional\n * and does not conflict with the expectations of ERC20 applications.\n *\n * Additionally, an `Approval` event is emitted on calls to `transferFrom`.\n * This allows applications to reconstruct the allowance for all accounts just\n * by listening to said events. Other implementations of the EIP may not emit\n * these events, as it isn't required by the specification.\n *\n * Finally, the non-standard `decreaseAllowance` and `increaseAllowance`\n * functions have been added to mitigate the well-known issues around setting\n * allowances. See `IERC20.approve`.\n */\ncontract ERC20 is IERC20, Pausable {\n    using SafeMath for uint256;\n\n    mapping (address => uint256) private _balances;\n\n    mapping (address => mapping (address => uint256)) private _allowances;\n\n    uint256 private _totalSupply;\n\n    /**\n     * @dev See `IERC20.totalSupply`.\n     */\n    function totalSupply() public view returns (uint256) {\n        return _totalSupply;\n    }\n\n    /**\n     * @dev See `IERC20.balanceOf`.\n     */\n    function balanceOf(address account) public view returns (uint256) {\n        return _balances[account];\n    }\n\n\n    /**\n     * @dev See `IERC20.allowance`.\n     */\n    function allowance(address owner, address spender) public view returns (uint256) {\n        return _allowances[owner][spender];\n    }\n\n    /**\n     * @dev See `IERC20.approve`.\n     *\n     * Requirements:\n     *\n     * - `spender` cannot be the zero address.\n     */\n    function approve(address spender, uint256 value) public returns (bool) {\n        _approve(msg.sender, spender, value);\n        return true;\n    }\n\n\n    /**\n     * @dev Atomically increases the allowance granted to `spender` by the caller.\n     *\n     * This is an alternative to `approve` that can be used as a mitigation for\n     * problems described in `IERC20.approve`.\n     *\n     * Emits an `Approval` event indicating the updated allowance.\n     *\n     * Requirements:\n     *\n     * - `spender` cannot be the zero address.\n     */\n    function increaseAllowance(address spender, uint256 addedValue) public returns (bool) {\n        _approve(msg.sender, spender, _allowances[msg.sender][spender].add(addedValue));\n        return true;\n    }\n\n    /**\n     * @dev Atomically decreases the allowance granted to `spender` by the caller.\n     *\n     * This is an alternative to `approve` that can be used as a mitigation for\n     * problems described in `IERC20.approve`.\n     *\n     * Emits an `Approval` event indicating the updated allowance.\n     *\n     * Requirements:\n     *\n     * - `spender` cannot be the zero address.\n     * - `spender` must have allowance for the caller of at least\n     * `subtractedValue`.\n     */\n    function decreaseAllowance(address spender, uint256 subtractedValue) public returns (bool) {\n        _approve(msg.sender, spender, _allowances[msg.sender][spender].sub(subtractedValue));\n        return true;\n    }\n\n    /**\n     * @dev Moves tokens `amount` from `sender` to `recipient`.\n     *\n     * This is internal function is equivalent to `transfer`, and can be used to\n     * e.g. implement automatic token fees, slashing mechanisms, etc.\n     *\n     * Emits a `Transfer` event.\n     *\n     * Requirements:\n     *\n     * - `sender` cannot be the zero address.\n     * - `recipient` cannot be the zero address.\n     * - `sender` must have a balance of at least `amount`.\n     */\n    function _transfer(address sender, address recipient, uint256 amount) internal {\n        require(sender != address(0), \"ERC20: transfer from the zero address\");\n        require(recipient != address(0), \"ERC20: transfer to the zero address\");\n\n        _balances[sender] = _balances[sender].sub(amount);\n        _balances[recipient] = _balances[recipient].add(amount);\n        emit Transfer(sender, recipient, amount);\n    }\n\n    /** @dev Creates `amount` tokens and assigns them to `account`, increasing\n     * the total supply.\n     *\n     * Emits a `Transfer` event with `from` set to the zero address.\n     *\n     * Requirements\n     *\n     * - `to` cannot be the zero address.\n     */\n    function _mint(address account, uint256 amount) internal {\n        require(account != address(0), \"ERC20: mint to the zero address\");\n\n        _totalSupply = _totalSupply.add(amount);\n        _balances[account] = _balances[account].add(amount);\n        emit Transfer(address(0), account, amount);\n    }\n\n     /**\n     * @dev Destoys `amount` tokens from `account`, reducing the\n     * total supply.\n     *\n     * Emits a `Transfer` event with `to` set to the zero address.\n     *\n     * Requirements\n     *\n     * - `account` cannot be the zero address.\n     * - `account` must have at least `amount` tokens.\n     */\n    function _burn(address account, uint256 value) internal {\n        require(account != address(0), \"ERC20: burn from the zero address\");\n\n        _totalSupply = _totalSupply.sub(value);\n        _balances[account] = _balances[account].sub(value);\n        emit Transfer(account, address(0), value);\n    }\n\n    /**\n     * @dev See `IERC20.transferFrom`.\n     *\n     * Emits an `Approval` event indicating the updated allowance. This is not\n     * required by the EIP. See the note at the beginning of `ERC20`;\n     *\n     * Requirements:\n     * - `sender` and `recipient` cannot be the zero address.\n     * - `sender` must have a balance of at least `value`.\n     * - the caller must have allowance for `sender`'s tokens of at least\n     * `amount`.\n     */\n    function _transferFrom(address sender, address recipient, uint256 amount) internal whenNotPaused returns (bool) {\n        _transfer(sender, recipient, amount);\n        _approve(sender, msg.sender, _allowances[sender][msg.sender].sub(amount));\n        return true;\n    }\n\n\n    /**\n     * @dev Sets `amount` as the allowance of `spender` over the `owner`s tokens.\n     *\n     * This is internal function is equivalent to `approve`, and can be used to\n     * e.g. set automatic allowances for certain subsystems, etc.\n     *\n     * Emits an `Approval` event.\n     *\n     * Requirements:\n     *\n     * - `owner` cannot be the zero address.\n     * - `spender` cannot be the zero address.\n     */\n    function _approve(address owner, address spender, uint256 value) internal {\n        require(owner != address(0), \"ERC20: approve from the zero address\");\n        require(spender != address(0), \"ERC20: approve to the zero address\");\n\n        _allowances[owner][spender] = value;\n        emit Approval(owner, spender, value);\n    }\n\n}\n\ncontract Fessstable is ERC20 {\n\n    using SafeMath for uint256;\n    string  public  name;\n    string  public  symbol;\n    uint8   public constant decimals = 18;\n    address public fesschainAddress;\n\n    uint256 public feesAmount;\n    address payable public feesWallet;\n    uint256 public rate; \n    fesschain public token;\n    \n\n    struct stakingDetails {\n\n        uint256 value;\n        uint256 timePeriod;\n        uint256 startTime;\n\n    }\n\n    mapping(address => stakingDetails) public stakingEvent;\n    mapping(address => bool) public stakingActive;\n    \n    constructor(address _owner, address payable _feesWallet, string memory _name, string memory _symbol, fesschain _fesschainAddress) public Owned(_owner) {\n\n               name = _name;\n               symbol = _symbol;\n               token = _fesschainAddress;\n               feesWallet = _feesWallet;\n               feesAmount = 100000000000000000 wei;\n               rate = 12;\n\n    }\n\n    /**\n     * @dev See `IERC20.transfer`.\n     *\n     * Requirements:\n     *\n     * - `recipient` cannot be the zero address.\n     * - the caller must have a balance of at least `amount`.\n     */\n    function transfer(address recipient, uint256 amount) public whenNotPaused returns (bool) {\n\n        super._transfer(msg.sender, recipient, amount);\n\n\n        return true;\n    }\n\n    /**\n     * @dev See `IERC20.transferFrom`.\n     *\n     * Emits an `Approval` event indicating the updated allowance. This is not\n     * required by the EIP. See the note at the beginning of `ERC20`;\n     *\n     * Requirements:\n     * - `sender` and `recipient` cannot be the zero address.\n     * - `sender` must have a balance of at least `value`.\n     * - the caller must have allowance for `sender`'s tokens of at least\n     * `amount`.\n     */\n    function transferFrom(address sender, address recipient, uint256 amount) public whenNotPaused returns (bool) {\n\n        super._transferFrom(sender, recipient, amount);\n\n        return true;\n    }\n\n\n    function setWalletAddress(address payable wallet) public whenNotPaused onlyOwner returns (bool) {\n\n      feesWallet = wallet;\n\n        return true;\n    }\n\n    function setbaseFees() public payable whenNotPaused onlyOwner returns (bool) {\n\n      feesAmount = msg.value;\n      feesWallet.transfer(msg.value);\n        return true;\n    }\n\n    function setRateOfConversion(uint256 _rate) public whenNotPaused onlyOwner returns (bool) {\n\n    require (rate>0);\n      rate = _rate;\n\n        return true;\n    }\n\n\n    function mint(address _userAddress, uint256 _value) public whenNotPaused onlyOwner returns (bool) {\n\n    _mint(_userAddress,_value);\n\n        return true;\n    }\n\n    \n    function swapTokens(uint256 value) public whenNotPaused payable returns (bool) {\n\n       require(token.balanceOf(msg.sender) >= value,'balance of a user is less then value');\n       \n       uint256 checkAllowance = token.allowance(msg.sender, address(this)); \n\n       require (checkAllowance >= value, 'allowance is wrong');\n       require(token.transferFrom(msg.sender,address(this),value),'transfer From failed');\n       require(rate > 0, 'rate is zero');\n       require(feesWallet != address(0), 'fee wallet address not set');\n       require(msg.value >= feesAmount, 'fee value is less then required');\n\n       uint256 additionalValue = value.mul(rate).div(100);\n       uint256 totalvalueToSent = additionalValue.add(value);       \n\n       require(mint(msg.sender,totalvalueToSent),'Minting failed');\n       feesWallet.transfer(msg.value);\n       \n        return true;\n    }    \n\n    function staking(uint256 _value, uint256 _timePeriod) public whenNotPaused returns (bool) {\n\n       require(token.balanceOf(msg.sender) >= _value,'balance of a user is less then value');\n\n       uint256 checkAllowance = token.allowance(msg.sender, address(this)); \n\n       require (checkAllowance >= _value, 'allowance is wrong');\n       require(token.transferFrom(msg.sender,address(this),_value),'transferFROM failed');\n\n       require(stakingActive[msg.sender] == false);\n       require(_timePeriod == 3 || _timePeriod == 6  || _timePeriod == 9  || _timePeriod == 12 , 'wrong time period');\n       \n     stakingEvent[msg.sender] = stakingDetails(\n       {\n\n         value : _value,\n         timePeriod : _timePeriod,\n         startTime : now\n\n\n       });\n\n     stakingActive[msg.sender] = true;\n\n        return true;\n    }    \n\n    function withdrawStaking() public whenNotPaused returns (bool) {\n\n        require(stakingActive[msg.sender] == true);\n        stakingDetails memory stakingTemp = stakingEvent[msg.sender];\n\n        uint256 oneMonthInSeconds = 2592000;\n        uint256 stakingTineInseconds =  (stakingTemp.timePeriod).mul(2592000);\n        require(now >= stakingTineInseconds);\n\n        if(stakingTemp.timePeriod == 3){\n        \n        uint256 valueToTransfer = stakingTemp.value.mul(12).div(100);    \n        require(token.transfer(msg.sender,stakingTemp.value) && mint(msg.sender,valueToTransfer));\n        stakingActive[msg.sender] = false;\n        return true;\n\n        }else if (stakingTemp.timePeriod == 6) {\n\n        uint256 valueToTransfer = stakingTemp.value.mul(24).div(100);    \n        require(token.transfer(msg.sender,stakingTemp.value) && mint(msg.sender,valueToTransfer));\n        stakingActive[msg.sender] = false;\n        return true;\n            \n        }else if(stakingTemp.timePeriod == 9){\n\n        uint256 valueToTransfer = stakingTemp.value.mul(36).div(100);    \n        require(token.transfer(msg.sender,stakingTemp.value) && mint(msg.sender,valueToTransfer));\n        stakingActive[msg.sender] = false;\n        return true;\n\n        }else if (stakingTemp.timePeriod == 12) {\n\n        uint256 valueToTransfer = stakingTemp.value.mul(48).div(100);    \n        require(token.transfer(msg.sender,stakingTemp.value) && mint(msg.sender,valueToTransfer));\n        stakingActive[msg.sender] = false;\n        return true;\n        \n        }\n\n    }    \n\n\n     /**\n      * @dev distribution function to tokens. Best works upto 50 addresses in one time. Maximum limit is 200 addresses in one time.\n      * @param _addresses array of address in serial order\n      * @param _amount amount in serial order with respect to address array\n      */\n      function distributeTokens(address[] memory _addresses, uint256[] memory _amount) public  onlyOwner returns (bool){\n\n          require(_addresses.length == _amount.length,\"Invalid Array\");\n          uint256 count = _addresses.length;\n          for (uint256 i = 0; i < count; i++){\n\n                mint(_addresses[i],_amount[i]);\n          }\n          return true;\n      }\n\n    function () external payable {\n    \n       revert();\n\n    }\n    \n function transferAnyERC20Token(address tokenAddress, uint tokens) public whenNotPaused onlyOwner returns (bool success) {\n        require(tokenAddress != address(0));\n        return ERC20(tokenAddress).transfer(owner, tokens);\n    }}",
  "sourcePath": "/home/abhi/Projects/fessstable/contracts/Fessstable.sol",
  "compiler": {
    "name": "solc",
    "version": "0.5.16+commit.9c3226ce.Emscripten.clang"
  },
  "schemaVersion": "3.0.22",
  "updatedAt": "2020-08-21T06:09:52.201Z",
  "devdoc": {
    "methods": {}
  },
  "userdoc": {
    "methods": {}
  }
}